:100000000C946D000C948A000C948A000C948A0065
:100010000C948A000C948A000C948A000C948A0038
:100020000C948A000C948A000C948A000C948A0028
:100030000C948A000C948A000C948A000C948A0018
:100040000C948A000C948A000C948A000C948A0008
:100050000C948A000C948A000C948A000C948A00F8
:100060000C948A000C948A00D00304040404040451
:100070000404CC04D604F004FB041C0591036504BD
:1000800065046504650405A84CCDB2D44EB9383674
:10009000A9020C50B9918688083CA6AAAA2ABE00DB
:1000A0000000803F0800080008000600020007006A
:1000B000FF000B0056004000FF0006000200070092
:1000C000FF000B0056004000FF0006000200070082
:1000D000FF000B0056004000FF0011241FBECFEFB1
:1000E000D8E0DEBFCDBF11E0A0E0B1E0E8EAF2E188
:1000F00002C005900D92AE30B107D9F722E0AEE014
:10010000B1E001C01D92A431B207E1F70E9468017D
:100110000C9452090C9400000895FC0180818830F1
:1001200041F0803131F40180F281E02D80819181B4
:1001300008950180F281E02D808190E00895FB0117
:100140002081283019F0203131F008950180F281AA
:10015000E02D808308950180F281E02D91838083DA
:100160000895CF93DF93EC01809110018F5F8A3F58
:1001700018F48093100113C01092100180910E01A9
:1001800090910F0101968F3F910528F490930F01F4
:1001900080930E0104C010920F0110920E018A810B
:1001A000882309F44DC09B85981708F01B86FB0136
:1001B000A0910E01B0910F01AF5EBE4F9C918C8556
:1001C000288139812D5F3F4F899FC00111246AE04A
:1001D00070E00E94800540815181649FC001659F4D
:1001E000900D749F900D1124B901892F86958695E5
:1001F00090E00E949F00688179818B85FE01E80F65
:10020000F11DE80FF11D838194810E949F008A8176
:100210008230B0F09E859F5F9E872D85921780F07B
:100220001E862B85422F50E090E001974817590712
:100230001CF42F5F2B8704C04817590709F41B864D
:10024000DF91CF910895CF93DF93EC018A818823CA
:10025000E1F19B85981708F01B86FB016881798185
:100260006D5F7F4F4C8520813181429FC001439F4C
:10027000900D1124892F8695869590E00E949F000D
:10028000688179818B85FE01E80FF11DE80FF11D72
:10029000838194810E949F008A818230B0F09E8584
:1002A0009F5F9E872D85921780F01E862B85422F9B
:1002B00050E090E00197481759071CF42F5F2B87F7
:1002C00004C04817590709F41B86DF91CF910895A0
:1002D000CF93DF93CDB7DEB72F970FB6F894DEBF7D
:1002E0000FBECDBF82E090E00E9431089D878C87D1
:1002F00089E090E00E9431089A83898314B8219A9A
:10030000229A239A259A1AB8539A559A569A109275
:100310007C0010927A0080917C00806480937C0045
:1003200080917A00876880937A0081EA84BD98E0A2
:1003300095BD8093800020E1209381008093B000E0
:100340009093B10021E131E03C832B83812C912CEF
:1003500044E3A42E43ECB42EC501B4010E94A107CE
:1003600020E030E040E251E40E9434070E94B406ED
:10037000AB81BC816D93BC83AB8325EB34EB44EB49
:100380005FE3C501B4010E9448064B015C01EB81AB
:10039000FC81E051F24001F785B5846085BD809114
:1003A00081008460809381008091B100826080939D
:1003B000B1008091B10084608093B100E3E0A98135
:1003C000BA81EC9382E190E00E9431084C0188E010
:1003D000D4018C9313968C93139727E430E01296F4
:1003E0003C932E93119728E430E015963C932E937E
:1003F000149790E116969C93169719969C931997CB
:1004000028E830E018963C932E9317972AE830E0BE
:100410001B963C932E931A971C968C931C971F96B1
:100420008C931F9783EB90E01E969C938E931D9761
:1004300084EB90E051969C938E935097E981FA81DA
:100440009482838223E0218383E390E00E94310839
:100450005C01FC0140E050E08FEF90E060E60CE8CA
:1004600010E0A981BA8111962C91119730E04217C2
:100470005307C4F491828082148694838383968385
:100480008583908787839287818712821386658709
:100490001686108B07874F5F5F4F36E0830E911CE7
:1004A0007196DFCF1696BC92AE92159783E01296A6
:1004B0008C9389E396E00E943108DC01E8EAF0E0E1
:1004C000859194911196BC92AE922AEC30E01396ED
:1004D0003C932E93129715969C938E931497179690
:1004E0001C921E9216971B961C921B971C961C9290
:1004F0001C971D961C921D971E961C921E971F9668
:100500001C921F9750961C92509751961C9251978F
:1005100052961C92529719961C921E9218971A96F0
:100520001C921A9753961C92539754961C92549768
:10053000AD014B5E5F4F8EEF91E0FA019C0111928D
:1005400021503040E1F7E6EAF0E025913491FD01D9
:10055000ED5EFD4FA5014F5E5F4F518340834AEB37
:1005600050E0538342833583248317821682138697
:100570001486158616861786108A118A128A1186A5
:1005800010861286138A148AAF014B5E5F4FFA0100
:100590009C01119221503040E1F7E4EAF0E025910E
:1005A0003491FD01EA5DFB4FA5014E5D5F4F518324
:1005B00040834AEA50E05383428335832483178281
:1005C000168213861486158616861786108A118A57
:1005D000128A118610861286138A148AAF014B5E26
:1005E0005F4FFA019C01119221503040E1F7E981FF
:1005F000FA81B087A78380917A00806480937A0023
:1006000080917A008091780090917900AC85BD85C9
:100610008D939C93E981FA818281278130853F8780
:100620002E87F901A12CB12C482F50E05B874A8717
:100630008A859B85A816B906CCF58481958101979A
:100640002681378128173907C0F1238534854585F0
:1006500056856785708981899289A0E00E94180675
:1006600061F5EE85FF8580E090E0178216821386A3
:100670001486158616861786108A118A128A1186A4
:1006800010861286138A148AAF014B5E5F4FDA011F
:100690002EEF31E01D9221503040E1F70196ED5EE2
:1006A000FD4F4A855B8584179507FCF22090000179
:1006B00030900101198618863FC05FEFA51AB50A70
:1006C000ED5EFD4FB5CFAE85BF851B967C901B9729
:1006D0001C968C901C971D969C901D971E96AC9016
:1006E0001E971F96BC901F975096BC91EE85FF8574
:1006F00061885288272D382D492D5A2D6B2D7B2F3F
:10070000862D952DA0E00E941806F9F0ACEF0E940E
:100710000C0623873487458756876787708B818BC4
:10072000928BE885F9853196F987E8872E853F8594
:100730002D5E3D4F3F872E874A855B85888599854D
:100740004817590709F0BFCFAEC1AE85BF851696D1
:100750008D909C90179714968D919C911597019769
:1007600088169906F0F612966D907C9013972401E6
:10077000440C551CF301E40DF51DB491BD83EE85C9
:10078000FF850190F081E02DFC83EB838B2F90E0BF
:100790008F30910530F6FC01EC5CFF4F0C94940512
:1007A000F2013296E60DF71DE491C12CD12C910196
:1007B000A60160E070E080E090E002E00E94F305B6
:1007C000AE2EB12CC12CD12CE12CF12C00E010E08C
:1007D0000E949A05AE85BF851B962C931B971C968D
:1007E0003C931C971D964C931D971E965C931E97E9
:1007F0001F966C931F9750967C93509751968C93AD
:10080000519752969C93E4C03D81232F30E03F8363
:100810002E83820E931EF4013196EE0FFF1FE60D1C
:10082000F71DE491C12CD12C9101A60160E070E08C
:1008300080E090E002E00E94F305AE2EB12CC12CC6
:10084000D12CE12CF12C00E010E00E949A05AE853D
:10085000BF851B962C931B971C963C931C971D964B
:100860004C931D971E965C931E971F966C931F9733
:1008700050967C93509751968C93519752969C9397
:1008800052972D81EB81FC81228332E0830E911CF3
:1008900017969C928E921697DF01139620E030E017
:1008A00080E090E02E5F3F4F4E815F818417950777
:1008B0000CF06DC0F901E40DF51DE60DF71D459135
:1008C00054914D935D930196EDCFBD81BA50BD8398
:1008D000EB2FF0E0FF83EE838E0E9F1E54012FEF6F
:1008E000A21AB20AAA0CBB1CF301EA0DFB1DE4918B
:1008F000AB81BC811C96EC93B2E0AB0EB11CF30152
:10090000EA0DFB1DE491C12CD12C9101A60160E000
:1009100070E080E090E002E00E94F305AE2EB12C82
:10092000C12CD12CE12CF12C00E010E00E949A05A2
:10093000EE85FF8523873487458756876787708BC9
:10094000818B928BF3E08F0E911CAE85BF8517963D
:100950009C928E9216972D81EB81FC812283DF0180
:10096000139620E030E080E090E02E5F3F4F4E8114
:100970005F81841795075CF4F201E20FF31FE60D27
:10098000F71D459154914D935D930196EECFAB8148
:10099000BC811B961C92C5CEF2013296E60DF71D66
:1009A000E491AB81BC811C96EC9312C0F2013296AB
:1009B000E60DF71DE491F0E0EE0FFF1FE85FFE4F3C
:1009C00080819181AB81BC8150969C938E931F97BF
:1009D000B2E08B0E911CEE85FF8597828682A1CEB8
:1009E000F2013296E60DF71DE4912E2E312CF2E045
:1009F0008F0E911C51C0EE85FF85808591858816EC
:100A0000990671F4F2E08F0E911CAE85BF851796A2
:100A10009C928E92169719961C921E92189781CED0
:100A2000EE85FF8591868086F2013296E60DF71DF0
:100A3000E4918E1A910830C0F2013296E60DF71D4E
:100A4000E491AB81BC811C96EC93F2013496E60DE7
:100A5000F71DE491C12CD12C9101A60160E070E05A
:100A600080E090E002E00E94F305AE2EB12CC12C94
:100A7000D12CE12CF12C00E010E00E949A05EE85CB
:100A8000FF8523873487458756876787708B818BDF
:100A9000928BF3E08F0E911CAE85BF8517969C92CA
:100AA0008E9216973ECE3092010120920001A981CC
:100AB000BA811196AC9011971596ED91FC9116970D
:100AC000FC83EB83812C912CB12C8A149B049CF425
:100AD000AB81BC811F96ED91FC9150976C857D8513
:100AE000CD010995BFEF8B1A9B0AEB81FC817196B2
:100AF000FC83EB83EACFF5E1FA95F1F700007BCDBB
:100B000097FB072E16F4009407D077FD09D00E94BA
:100B1000240607FC05D03EF4909581959F4F0895DB
:100B2000709561957F4F0895EE0FFF1F0590F4912A
:100B3000E02D0994DF93CF931F930F939A9DF02D8F
:100B4000219FF00D8B9DF00D8A9DE02DF10D039FEF
:100B5000F00D029FE00DF11D4E9DE00DF11D5E9D1B
:100B6000F00D4F9DF00D7F936F93BF92AF925F9307
:100B70004F93D5010E9438068B01AC01D7010E942A
:100B80003806EB01E80FF91FD6010E94EA052F9104
:100B90003F91D6010E943806C60FD71FE81FF91FE4
:100BA000AF91BF910E94EA052F913F910E943806B4
:100BB000C60FD71FE81FF91FD6010E943806E60F9F
:100BC000F71F9801BE01CF0111240F911F91CF9102
:100BD000DF9108950E943806460F571FC81FD91F7E
:100BE00008F4319608950F93083090F0982F872FCE
:100BF000762F652F542F432F322F22270850F4CF02
:100C0000220F331F441F551F661F771F881F991F10
:100C10000A95B2F70F9108950024A7FD00942A0FBA
:100C2000301D401D501D601D701D801D901D0895BC
:100C30000024A7FD00942A173005400550056005E3
:100C40007005800590050895AA1BBB1B51E107C0E4
:100C5000AA1FBB1FA617B70710F0A61BB70B881F4C
:100C6000991F5A95A9F780959095BC01CD010895DB
:100C7000A29FB001B39FC001A39F700D811D1124DD
:100C8000911DB29F700D811D1124911D0895505822
:100C9000BB27AA270E945F060C94FA060E94EC0666
:100CA00038F00E94F30620F039F49F3F19F426F43F
:100CB0000C94E9060EF4E095E7FB0C94E306E92FAB
:100CC0000E940B0758F3BA1762077307840795074A
:100CD00020F079F4A6F50C942D070EF4E0950B2E78
:100CE000BA2FA02D0B01B90190010C01CA01A0017E
:100CF0001124FF27591B99F0593F50F4503E68F1D9
:100D00001A16F040A22F232F342F4427585FF3CF19
:100D1000469537952795A795F0405395C9F77EF4EA
:100D20001F16BA0B620B730B840BBAF09150A1F033
:100D3000FF0FBB1F661F771F881FC2F70EC0BA0FB9
:100D4000621F731F841F48F4879577956795B79541
:100D5000F7959E3F08F0B0CF9395880F08F099273C
:100D6000EE0F9795879508950E94130788F09F5777
:100D700098F0B92F9927B751B0F0E1F0660F771FBF
:100D8000881F991F1AF0BA95C9F714C0B13091F0B5
:100D90000E942D07B1E008950C942D07672F782F3E
:100DA0008827B85F39F0B93FCCF38695779567957A
:100DB000B395D9F73EF490958095709561957F4FE6
:100DC0008F4F9F4F089597F99F6780E870E060E02C
:100DD00008959FEF80EC089500240A9416161706D4
:100DE00018060906089500240A941216130614061C
:100DF00005060895092E0394000C11F4882352F07F
:100E0000BB0F40F4BF2B11F460FF04C06F5F7F4F36
:100E10008F4F9F4F089557FD9058440F551F59F01D
:100E20005F3F71F04795880F97FB991F61F09F3FD7
:100E300079F087950895121613061406551FF2CF00
:100E40004695F1DF08C0161617061806991FF1CF50
:100E500086957105610508940895E894BB27662777
:100E60007727CB0197F908950E9447070C94FA065B
:100E70000E94EC0638F00E94F30620F0952311F052
:100E80000C94E3060C94E90611240C942E070E949E
:100E90000B0770F3959FC1F3950F50E0551F629FAC
:100EA000F001729FBB27F00DB11D639FAA27F00DC3
:100EB000B11DAA1F649F6627B00DA11D661F829FEA
:100EC0002227B00DA11D621F739FB00DA11D621FCF
:100ED000839FA00D611D221F749F3327A00D611DEC
:100EE000231F849F600D211D822F762F6A2F1124CE
:100EF0009F5750409AF0F1F088234AF0EE0FFF1F01
:100F0000BB1F661F771F881F91505040A9F79E3F57
:100F1000510580F00C94E3060C942E075F3FE4F338
:100F2000983ED4F3869577956795B795F795E795AD
:100F30009F5FC1F7FE2B880F911D9695879597F9B6
:100F400008959F930E94AB070F9007FCEE5F0C94EF
:100F5000D4070C94E9060E941307D8F3E894E0E064
:100F6000BB279F57F0F02AED3FE049EC06C0EE0F9B
:100F7000BB0F661F771F881F28F0B23A62077307FE
:100F8000840728F0B25A620B730B840BE3959A9591
:100F900072F7803830F49A95BB0F661F771F881F51
:100FA000D2F790480C94EA07EF93E0FF07C0A2EA5B
:100FB0002AED3FE049EC5FEB0E945F060E94FA06D3
:100FC0000F90039401FC9058E6E8F0E00C94F607CB
:100FD0009F3F31F0915020F4879577956795B795AD
:100FE000880F911D9695879597F908959F938F93F4
:100FF0007F936F93FF93EF939B01AC010E943407A3
:10100000EF91FF910E940A082F913F914F915F91BC
:101010000C943407DF93CF931F930F93FF92EF92BB
:10102000DF927B018C01689406C0DA2EEF010E94EA
:101030004707FE01E894A591259135914591559179
:10104000A6F3EF010E945F06FE019701A801DA9462
:1010500069F7DF90EF90FF900F911F91CF91DF9193
:1010600008950F931F93CF93DF938230910510F46F
:1010700082E090E0E0911202F091130220E030E073
:10108000A0E0B0E0309719F14081518102811381D5
:1010900048175907C8F08417950769F4109731F07D
:1010A00012960C93129713961C9327C0009312026A
:1010B0001093130222C02115310519F0421753076E
:1010C00018F49A01BD01EF01DF01F801DBCF211512
:1010D0003105F9F0281B390B2430310580F48A8161
:1010E0009B816115710521F0FB019383828304C00C
:1010F0009093130280931202FE01329644C0FE01C7
:10110000E20FF31F81939193225031093983288391
:101110003AC02091100230911102232B41F420910A
:1011200004013091050130931102209310022091A7
:101130000201309103012115310541F42DB73EB76D
:101140004091060150910701241B350BE0911002DC
:10115000F0911102E217F307A0F42E1B3F0B2817A2
:10116000390778F0AC014E5F5F4F2417350748F020
:101170004E0F5F1F50931102409310028193919381
:1011800002C0E0E0F0E0CF01DF91CF911F910F911D
:101190000895CF93DF93009709F481C0FC01329743
:1011A00013821282A0911202B0911302109781F45F
:1011B00020813181820F931F209110023091110202
:1011C0002817390751F5F0931102E093100267C018
:1011D000ED0120E030E0CE17DF0740F44A815B816B
:1011E0009E0141155105F1F0EA01F5CFD383C28389
:1011F00040815181840F951FC817D90759F4888100
:101200009981840F951F0296918380838A819B81A7
:10121000938382832115310529F4F0931302E0931F
:1012200012023DC0E901FB83EA8349915991C40F41
:10123000D51FEC17FD0761F480819181840F951F04
:101240000296E90199838883828193819B838A83B3
:10125000E0E0F0E012968D919C911397009719F0C1
:10126000FD01DC01F7CF8D919C9111979D012E5FBF
:101270003F4F820F931F20911002309111022817C7
:10128000390769F4309729F4109213021092120270
:1012900002C013821282B0931102A0931002DF9158
:0812A000CF910895F894FFCFEF
:0E12A80000100000140220008C002301B10091
:00000001FF
